{
  "transactions": [
    {
      "hash": "0x0c066ee8a022cc13757342d70de3f7017b602d62d4bba00a570c7683a2c8f8ad",
      "transactionType": "CALL",
      "contractName": null,
      "contractAddress": "0x759b90125a774417d5bb2442ede59bc2a0c672ce",
      "function": "mintNFT(string)",
      "arguments": [
        "https://ipfs.io/ipfs/QmNf1UsmdGaMbpatQ6toXSkzDpizaGmC9zfunCyoz1enD5/penguin/420.png"
      ],
      "transaction": {
        "from": "0x0a48b723d88874ec79a12d12e9745a65eb80df65",
        "to": "0x759b90125a774417d5bb2442ede59bc2a0c672ce",
        "gas": "0x3d5d8",
        "value": "0x0",
        "input": "0xfb37e8830000000000000000000000000000000000000000000000000000000000000020000000000000000000000000000000000000000000000000000000000000005368747470733a2f2f697066732e696f2f697066732f516d4e663155736d6447614d627061745136746f58536b7a4470697a61476d43397a66756e43796f7a31656e44352f70656e6775696e2f3432302e706e6700000000000000000000000000",
        "nonce": "0x69",
        "chainId": "0xaa36a7"
      },
      "additionalContracts": [],
      "isFixedGasLimit": false
    }
  ],
  "receipts": [
    {
      "status": "0x1",
      "cumulativeGasUsed": "0x1637e29",
      "logs": [
        {
          "address": "0x759b90125a774417d5bb2442ede59bc2a0c672ce",
          "topics": [
            "0xddf252ad1be2c89b69c2b068fc378daa952ba7f163c4a11628f55a4df523b3ef",
            "0x0000000000000000000000000000000000000000000000000000000000000000",
            "0x0000000000000000000000000a48b723d88874ec79a12d12e9745a65eb80df65",
            "0x0000000000000000000000000000000000000000000000000000000000000000"
          ],
          "data": "0x",
          "blockHash": "0x80cbb8da8e57c319cc900fc4e63a6a45596870b5f93c63b4b4ce1355dd8408ba",
          "blockNumber": "0x739101",
          "transactionHash": "0x0c066ee8a022cc13757342d70de3f7017b602d62d4bba00a570c7683a2c8f8ad",
          "transactionIndex": "0xac",
          "logIndex": "0x236",
          "removed": false
        }
      ],
      "logsBloom": "0x00000000000000000000000000400000000000000000000000000000000000000000000000000000000000000000000000000000000000000000000000000000000000000000000000000008000000000000000000000000000000000000000000000000020000000000000000000800000000000000000000000010000000000000000000000000000000000040000000000002000000000000000000000000200000000000000000000000000000400000000020000000000000000000000000000002000000000000000000000000000000000000000000000000000020000000000000000000000000000000000000000000000000000000000000000000",
      "type": "0x2",
      "transactionHash": "0x0c066ee8a022cc13757342d70de3f7017b602d62d4bba00a570c7683a2c8f8ad",
      "transactionIndex": "0xac",
      "blockHash": "0x80cbb8da8e57c319cc900fc4e63a6a45596870b5f93c63b4b4ce1355dd8408ba",
      "blockNumber": "0x739101",
      "gasUsed": "0x2c6d7",
      "effectiveGasPrice": "0x23cc3952d",
      "from": "0x0a48b723d88874ec79a12d12e9745a65eb80df65",
      "to": "0x759b90125a774417d5bb2442ede59bc2a0c672ce",
      "contractAddress": null
    }
  ],
  "libraries": [],
  "pending": [],
  "returns": {},
  "timestamp": 1737882662,
  "chain": 11155111,
  "commit": "f919ed5"
}